{
  "_format": "hh-sol-artifact-1",
  "contractName": "MockYearnVault",
  "sourceName": "contracts/mocks/MockYearnVault.sol",
  "abi": [
    {
      "inputs": [
        {
          "internalType": "address",
          "name": "_token",
          "type": "address"
        }
      ],
      "stateMutability": "nonpayable",
      "type": "constructor"
    },
    {
      "inputs": [
        {
          "internalType": "address",
          "name": "token",
          "type": "address"
        }
      ],
      "name": "SafeERC20FailedOperation",
      "type": "error"
    },
    {
      "inputs": [
        {
          "internalType": "address",
          "name": "",
          "type": "address"
        }
      ],
      "name": "balanceOf",
      "outputs": [
        {
          "internalType": "uint256",
          "name": "",
          "type": "uint256"
        }
      ],
      "stateMutability": "view",
      "type": "function"
    },
    {
      "inputs": [
        {
          "internalType": "uint256",
          "name": "amount",
          "type": "uint256"
        }
      ],
      "name": "deposit",
      "outputs": [
        {
          "internalType": "uint256",
          "name": "",
          "type": "uint256"
        }
      ],
      "stateMutability": "nonpayable",
      "type": "function"
    },
    {
      "inputs": [],
      "name": "pricePerShare",
      "outputs": [
        {
          "internalType": "uint256",
          "name": "",
          "type": "uint256"
        }
      ],
      "stateMutability": "pure",
      "type": "function"
    },
    {
      "inputs": [],
      "name": "token",
      "outputs": [
        {
          "internalType": "contract IERC20",
          "name": "",
          "type": "address"
        }
      ],
      "stateMutability": "view",
      "type": "function"
    },
    {
      "inputs": [],
      "name": "totalSupply",
      "outputs": [
        {
          "internalType": "uint256",
          "name": "",
          "type": "uint256"
        }
      ],
      "stateMutability": "view",
      "type": "function"
    },
    {
      "inputs": [
        {
          "internalType": "uint256",
          "name": "amount",
          "type": "uint256"
        }
      ],
      "name": "withdraw",
      "outputs": [
        {
          "internalType": "uint256",
          "name": "",
          "type": "uint256"
        }
      ],
      "stateMutability": "nonpayable",
      "type": "function"
    }
  ],
  "bytecode": "0x608060405234801561001057600080fd5b5060405161047938038061047983398101604081905261002f91610054565b600080546001600160a01b0319166001600160a01b0392909216919091179055610084565b60006020828403121561006657600080fd5b81516001600160a01b038116811461007d57600080fd5b9392505050565b6103e6806100936000396000f3fe608060405234801561001057600080fd5b50600436106100625760003560e01c806318160ddd146100675780632e1a7d4d1461008357806370a082311461009657806399530b06146100b6578063b6b55f25146100c4578063fc0c546a146100d7575b600080fd5b61007060025481565b6040519081526020015b60405180910390f35b610070610091366004610325565b610102565b6100706100a436600461033e565b60016020526000908152604090205481565b670de0b6b3a7640000610070565b6100706100d2366004610325565b6101b5565b6000546100ea906001600160a01b031681565b6040516001600160a01b03909116815260200161007a565b3360009081526001602052604081205482111561015d5760405162461bcd60e51b8152602060048201526014602482015273496e73756666696369656e742062616c616e636560601b60448201526064015b60405180910390fd5b336000908152600160205260408120805484929061017c908490610384565b9250508190555081600260008282546101959190610384565b90915550506000546101b1906001600160a01b03163384610211565b5090565b600080546101ce906001600160a01b0316333085610275565b33600090815260016020526040812080548492906101ed90849061039d565b925050819055508160026000828254610206919061039d565b909155509192915050565b6040516001600160a01b0383811660248301526044820183905261027091859182169063a9059cbb906064015b604051602081830303815290604052915060e01b6020820180516001600160e01b0383818316178352505050506102b4565b505050565b6040516001600160a01b0384811660248301528381166044830152606482018390526102ae9186918216906323b872dd9060840161023e565b50505050565b600080602060008451602086016000885af1806102d7576040513d6000823e3d81fd5b50506000513d915081156102ef5780600114156102fc565b6001600160a01b0384163b155b156102ae57604051635274afe760e01b81526001600160a01b0385166004820152602401610154565b60006020828403121561033757600080fd5b5035919050565b60006020828403121561035057600080fd5b81356001600160a01b038116811461036757600080fd5b9392505050565b634e487b7160e01b600052601160045260246000fd5b818103818111156103975761039761036e565b92915050565b808201808211156103975761039761036e56fea2646970667358221220091d2c13e213f4395ea25d6cc757c187b55b6a712b4f897185d89088d34de29764736f6c63430008140033",
  "linkReferences": {},
  "deployedLinkReferences": {}
}