{
  "_format": "hh-sol-artifact-1",
  "contractName": "PiggyVault",
  "sourceName": "contracts/PiggyVault.sol",
  "abi": [
    {
      "inputs": [
        {
          "internalType": "contract IERC20",
          "name": "_underlying",
          "type": "address"
        },
        {
          "internalType": "string",
          "name": "name",
          "type": "string"
        },
        {
          "internalType": "string",
          "name": "symbol",
          "type": "string"
        }
      ],
      "stateMutability": "nonpayable",
      "type": "constructor"
    },
    {
      "inputs": [
        {
          "internalType": "address",
          "name": "spender",
          "type": "address"
        },
        {
          "internalType": "uint256",
          "name": "allowance",
          "type": "uint256"
        },
        {
          "internalType": "uint256",
          "name": "needed",
          "type": "uint256"
        }
      ],
      "name": "ERC20InsufficientAllowance",
      "type": "error"
    },
    {
      "inputs": [
        {
          "internalType": "address",
          "name": "sender",
          "type": "address"
        },
        {
          "internalType": "uint256",
          "name": "balance",
          "type": "uint256"
        },
        {
          "internalType": "uint256",
          "name": "needed",
          "type": "uint256"
        }
      ],
      "name": "ERC20InsufficientBalance",
      "type": "error"
    },
    {
      "inputs": [
        {
          "internalType": "address",
          "name": "approver",
          "type": "address"
        }
      ],
      "name": "ERC20InvalidApprover",
      "type": "error"
    },
    {
      "inputs": [
        {
          "internalType": "address",
          "name": "receiver",
          "type": "address"
        }
      ],
      "name": "ERC20InvalidReceiver",
      "type": "error"
    },
    {
      "inputs": [
        {
          "internalType": "address",
          "name": "sender",
          "type": "address"
        }
      ],
      "name": "ERC20InvalidSender",
      "type": "error"
    },
    {
      "inputs": [
        {
          "internalType": "address",
          "name": "spender",
          "type": "address"
        }
      ],
      "name": "ERC20InvalidSpender",
      "type": "error"
    },
    {
      "inputs": [
        {
          "internalType": "address",
          "name": "receiver",
          "type": "address"
        },
        {
          "internalType": "uint256",
          "name": "assets",
          "type": "uint256"
        },
        {
          "internalType": "uint256",
          "name": "max",
          "type": "uint256"
        }
      ],
      "name": "ERC4626ExceededMaxDeposit",
      "type": "error"
    },
    {
      "inputs": [
        {
          "internalType": "address",
          "name": "receiver",
          "type": "address"
        },
        {
          "internalType": "uint256",
          "name": "shares",
          "type": "uint256"
        },
        {
          "internalType": "uint256",
          "name": "max",
          "type": "uint256"
        }
      ],
      "name": "ERC4626ExceededMaxMint",
      "type": "error"
    },
    {
      "inputs": [
        {
          "internalType": "address",
          "name": "owner",
          "type": "address"
        },
        {
          "internalType": "uint256",
          "name": "shares",
          "type": "uint256"
        },
        {
          "internalType": "uint256",
          "name": "max",
          "type": "uint256"
        }
      ],
      "name": "ERC4626ExceededMaxRedeem",
      "type": "error"
    },
    {
      "inputs": [
        {
          "internalType": "address",
          "name": "owner",
          "type": "address"
        },
        {
          "internalType": "uint256",
          "name": "assets",
          "type": "uint256"
        },
        {
          "internalType": "uint256",
          "name": "max",
          "type": "uint256"
        }
      ],
      "name": "ERC4626ExceededMaxWithdraw",
      "type": "error"
    },
    {
      "inputs": [
        {
          "internalType": "address",
          "name": "owner",
          "type": "address"
        }
      ],
      "name": "OwnableInvalidOwner",
      "type": "error"
    },
    {
      "inputs": [
        {
          "internalType": "address",
          "name": "account",
          "type": "address"
        }
      ],
      "name": "OwnableUnauthorizedAccount",
      "type": "error"
    },
    {
      "inputs": [
        {
          "internalType": "address",
          "name": "token",
          "type": "address"
        }
      ],
      "name": "SafeERC20FailedOperation",
      "type": "error"
    },
    {
      "anonymous": false,
      "inputs": [
        {
          "indexed": true,
          "internalType": "address",
          "name": "owner",
          "type": "address"
        },
        {
          "indexed": true,
          "internalType": "address",
          "name": "spender",
          "type": "address"
        },
        {
          "indexed": false,
          "internalType": "uint256",
          "name": "value",
          "type": "uint256"
        }
      ],
      "name": "Approval",
      "type": "event"
    },
    {
      "anonymous": false,
      "inputs": [
        {
          "indexed": true,
          "internalType": "address",
          "name": "sender",
          "type": "address"
        },
        {
          "indexed": true,
          "internalType": "address",
          "name": "owner",
          "type": "address"
        },
        {
          "indexed": false,
          "internalType": "uint256",
          "name": "assets",
          "type": "uint256"
        },
        {
          "indexed": false,
          "internalType": "uint256",
          "name": "shares",
          "type": "uint256"
        }
      ],
      "name": "Deposit",
      "type": "event"
    },
    {
      "anonymous": false,
      "inputs": [
        {
          "indexed": true,
          "internalType": "address",
          "name": "previousOwner",
          "type": "address"
        },
        {
          "indexed": true,
          "internalType": "address",
          "name": "newOwner",
          "type": "address"
        }
      ],
      "name": "OwnershipTransferred",
      "type": "event"
    },
    {
      "anonymous": false,
      "inputs": [
        {
          "indexed": true,
          "internalType": "address",
          "name": "from",
          "type": "address"
        },
        {
          "indexed": true,
          "internalType": "address",
          "name": "to",
          "type": "address"
        },
        {
          "indexed": false,
          "internalType": "uint256",
          "name": "value",
          "type": "uint256"
        }
      ],
      "name": "Transfer",
      "type": "event"
    },
    {
      "anonymous": false,
      "inputs": [
        {
          "indexed": true,
          "internalType": "address",
          "name": "sender",
          "type": "address"
        },
        {
          "indexed": true,
          "internalType": "address",
          "name": "receiver",
          "type": "address"
        },
        {
          "indexed": true,
          "internalType": "address",
          "name": "owner",
          "type": "address"
        },
        {
          "indexed": false,
          "internalType": "uint256",
          "name": "assets",
          "type": "uint256"
        },
        {
          "indexed": false,
          "internalType": "uint256",
          "name": "shares",
          "type": "uint256"
        }
      ],
      "name": "Withdraw",
      "type": "event"
    },
    {
      "inputs": [
        {
          "internalType": "address",
          "name": "owner",
          "type": "address"
        },
        {
          "internalType": "address",
          "name": "spender",
          "type": "address"
        }
      ],
      "name": "allowance",
      "outputs": [
        {
          "internalType": "uint256",
          "name": "",
          "type": "uint256"
        }
      ],
      "stateMutability": "view",
      "type": "function"
    },
    {
      "inputs": [
        {
          "internalType": "address",
          "name": "spender",
          "type": "address"
        },
        {
          "internalType": "uint256",
          "name": "value",
          "type": "uint256"
        }
      ],
      "name": "approve",
      "outputs": [
        {
          "internalType": "bool",
          "name": "",
          "type": "bool"
        }
      ],
      "stateMutability": "nonpayable",
      "type": "function"
    },
    {
      "inputs": [],
      "name": "asset",
      "outputs": [
        {
          "internalType": "address",
          "name": "",
          "type": "address"
        }
      ],
      "stateMutability": "view",
      "type": "function"
    },
    {
      "inputs": [
        {
          "internalType": "address",
          "name": "account",
          "type": "address"
        }
      ],
      "name": "balanceOf",
      "outputs": [
        {
          "internalType": "uint256",
          "name": "",
          "type": "uint256"
        }
      ],
      "stateMutability": "view",
      "type": "function"
    },
    {
      "inputs": [
        {
          "internalType": "uint256",
          "name": "shares",
          "type": "uint256"
        }
      ],
      "name": "convertToAssets",
      "outputs": [
        {
          "internalType": "uint256",
          "name": "",
          "type": "uint256"
        }
      ],
      "stateMutability": "view",
      "type": "function"
    },
    {
      "inputs": [
        {
          "internalType": "uint256",
          "name": "assets",
          "type": "uint256"
        }
      ],
      "name": "convertToShares",
      "outputs": [
        {
          "internalType": "uint256",
          "name": "",
          "type": "uint256"
        }
      ],
      "stateMutability": "view",
      "type": "function"
    },
    {
      "inputs": [],
      "name": "decimals",
      "outputs": [
        {
          "internalType": "uint8",
          "name": "",
          "type": "uint8"
        }
      ],
      "stateMutability": "view",
      "type": "function"
    },
    {
      "inputs": [
        {
          "internalType": "uint256",
          "name": "assets",
          "type": "uint256"
        },
        {
          "internalType": "address",
          "name": "receiver",
          "type": "address"
        }
      ],
      "name": "deposit",
      "outputs": [
        {
          "internalType": "uint256",
          "name": "",
          "type": "uint256"
        }
      ],
      "stateMutability": "nonpayable",
      "type": "function"
    },
    {
      "inputs": [
        {
          "internalType": "address",
          "name": "",
          "type": "address"
        }
      ],
      "name": "maxDeposit",
      "outputs": [
        {
          "internalType": "uint256",
          "name": "",
          "type": "uint256"
        }
      ],
      "stateMutability": "view",
      "type": "function"
    },
    {
      "inputs": [
        {
          "internalType": "address",
          "name": "",
          "type": "address"
        }
      ],
      "name": "maxMint",
      "outputs": [
        {
          "internalType": "uint256",
          "name": "",
          "type": "uint256"
        }
      ],
      "stateMutability": "view",
      "type": "function"
    },
    {
      "inputs": [
        {
          "internalType": "address",
          "name": "owner",
          "type": "address"
        }
      ],
      "name": "maxRedeem",
      "outputs": [
        {
          "internalType": "uint256",
          "name": "",
          "type": "uint256"
        }
      ],
      "stateMutability": "view",
      "type": "function"
    },
    {
      "inputs": [
        {
          "internalType": "address",
          "name": "owner",
          "type": "address"
        }
      ],
      "name": "maxWithdraw",
      "outputs": [
        {
          "internalType": "uint256",
          "name": "",
          "type": "uint256"
        }
      ],
      "stateMutability": "view",
      "type": "function"
    },
    {
      "inputs": [
        {
          "internalType": "uint256",
          "name": "shares",
          "type": "uint256"
        },
        {
          "internalType": "address",
          "name": "receiver",
          "type": "address"
        }
      ],
      "name": "mint",
      "outputs": [
        {
          "internalType": "uint256",
          "name": "",
          "type": "uint256"
        }
      ],
      "stateMutability": "nonpayable",
      "type": "function"
    },
    {
      "inputs": [],
      "name": "name",
      "outputs": [
        {
          "internalType": "string",
          "name": "",
          "type": "string"
        }
      ],
      "stateMutability": "view",
      "type": "function"
    },
    {
      "inputs": [],
      "name": "owner",
      "outputs": [
        {
          "internalType": "address",
          "name": "",
          "type": "address"
        }
      ],
      "stateMutability": "view",
      "type": "function"
    },
    {
      "inputs": [
        {
          "internalType": "uint256",
          "name": "assets",
          "type": "uint256"
        }
      ],
      "name": "previewDeposit",
      "outputs": [
        {
          "internalType": "uint256",
          "name": "",
          "type": "uint256"
        }
      ],
      "stateMutability": "view",
      "type": "function"
    },
    {
      "inputs": [
        {
          "internalType": "uint256",
          "name": "shares",
          "type": "uint256"
        }
      ],
      "name": "previewMint",
      "outputs": [
        {
          "internalType": "uint256",
          "name": "",
          "type": "uint256"
        }
      ],
      "stateMutability": "view",
      "type": "function"
    },
    {
      "inputs": [
        {
          "internalType": "uint256",
          "name": "shares",
          "type": "uint256"
        }
      ],
      "name": "previewRedeem",
      "outputs": [
        {
          "internalType": "uint256",
          "name": "",
          "type": "uint256"
        }
      ],
      "stateMutability": "view",
      "type": "function"
    },
    {
      "inputs": [
        {
          "internalType": "uint256",
          "name": "assets",
          "type": "uint256"
        }
      ],
      "name": "previewWithdraw",
      "outputs": [
        {
          "internalType": "uint256",
          "name": "",
          "type": "uint256"
        }
      ],
      "stateMutability": "view",
      "type": "function"
    },
    {
      "inputs": [
        {
          "internalType": "uint256",
          "name": "shares",
          "type": "uint256"
        },
        {
          "internalType": "address",
          "name": "receiver",
          "type": "address"
        },
        {
          "internalType": "address",
          "name": "owner",
          "type": "address"
        }
      ],
      "name": "redeem",
      "outputs": [
        {
          "internalType": "uint256",
          "name": "",
          "type": "uint256"
        }
      ],
      "stateMutability": "nonpayable",
      "type": "function"
    },
    {
      "inputs": [],
      "name": "renounceOwnership",
      "outputs": [],
      "stateMutability": "nonpayable",
      "type": "function"
    },
    {
      "inputs": [
        {
          "internalType": "address",
          "name": "_yearnConnector",
          "type": "address"
        }
      ],
      "name": "setYearnConnector",
      "outputs": [],
      "stateMutability": "nonpayable",
      "type": "function"
    },
    {
      "inputs": [],
      "name": "symbol",
      "outputs": [
        {
          "internalType": "string",
          "name": "",
          "type": "string"
        }
      ],
      "stateMutability": "view",
      "type": "function"
    },
    {
      "inputs": [],
      "name": "totalAssets",
      "outputs": [
        {
          "internalType": "uint256",
          "name": "",
          "type": "uint256"
        }
      ],
      "stateMutability": "view",
      "type": "function"
    },
    {
      "inputs": [],
      "name": "totalSupply",
      "outputs": [
        {
          "internalType": "uint256",
          "name": "",
          "type": "uint256"
        }
      ],
      "stateMutability": "view",
      "type": "function"
    },
    {
      "inputs": [
        {
          "internalType": "address",
          "name": "to",
          "type": "address"
        },
        {
          "internalType": "uint256",
          "name": "value",
          "type": "uint256"
        }
      ],
      "name": "transfer",
      "outputs": [
        {
          "internalType": "bool",
          "name": "",
          "type": "bool"
        }
      ],
      "stateMutability": "nonpayable",
      "type": "function"
    },
    {
      "inputs": [
        {
          "internalType": "address",
          "name": "from",
          "type": "address"
        },
        {
          "internalType": "address",
          "name": "to",
          "type": "address"
        },
        {
          "internalType": "uint256",
          "name": "value",
          "type": "uint256"
        }
      ],
      "name": "transferFrom",
      "outputs": [
        {
          "internalType": "bool",
          "name": "",
          "type": "bool"
        }
      ],
      "stateMutability": "nonpayable",
      "type": "function"
    },
    {
      "inputs": [
        {
          "internalType": "address",
          "name": "newOwner",
          "type": "address"
        }
      ],
      "name": "transferOwnership",
      "outputs": [],
      "stateMutability": "nonpayable",
      "type": "function"
    },
    {
      "inputs": [],
      "name": "underlying",
      "outputs": [
        {
          "internalType": "contract IERC20",
          "name": "",
          "type": "address"
        }
      ],
      "stateMutability": "view",
      "type": "function"
    },
    {
      "inputs": [
        {
          "internalType": "uint256",
          "name": "assets",
          "type": "uint256"
        },
        {
          "internalType": "address",
          "name": "receiver",
          "type": "address"
        },
        {
          "internalType": "address",
          "name": "owner",
          "type": "address"
        }
      ],
      "name": "withdraw",
      "outputs": [
        {
          "internalType": "uint256",
          "name": "",
          "type": "uint256"
        }
      ],
      "stateMutability": "nonpayable",
      "type": "function"
    },
    {
      "inputs": [],
      "name": "yearnConnector",
      "outputs": [
        {
          "internalType": "contract YearnConnector",
          "name": "",
          "type": "address"
        }
      ],
      "stateMutability": "view",
      "type": "function"
    }
  ],
  "bytecode": "0x60e06040523480156200001157600080fd5b5060405162001a6938038062001a698339810160408190526200003491620002e1565b338383836003620000468382620003fa565b506004620000558282620003fa565b5050506000806200006c83620000dd60201b60201c565b91509150816200007e57601262000080565b805b60ff1660a05250506001600160a01b039081166080528116620000bd57604051631e4fbdf760e01b81526000600482015260240160405180910390fd5b620000c881620001c2565b5050506001600160a01b031660c052620004fe565b60408051600481526024810182526020810180516001600160e01b031663313ce56760e01b17905290516000918291829182916001600160a01b038716916200012691620004c6565b600060405180830381855afa9150503d806000811462000163576040519150601f19603f3d011682016040523d82523d6000602084013e62000168565b606091505b50915091508180156200017d57506020815110155b15620001b5576000818060200190518101906200019b9190620004e4565b905060ff8111620001b3576001969095509350505050565b505b5060009485945092505050565b600580546001600160a01b038381166001600160a01b0319831681179093556040519116919082907f8be0079c531659141344cd1fd0a4f28419497f9722a3daafe3b4186f6b6457e090600090a35050565b634e487b7160e01b600052604160045260246000fd5b60005b83811015620002475781810151838201526020016200022d565b50506000910152565b600082601f8301126200026257600080fd5b81516001600160401b03808211156200027f576200027f62000214565b604051601f8301601f19908116603f01168101908282118183101715620002aa57620002aa62000214565b81604052838152866020858801011115620002c457600080fd5b620002d78460208301602089016200022a565b9695505050505050565b600080600060608486031215620002f757600080fd5b83516001600160a01b03811681146200030f57600080fd5b60208501519093506001600160401b03808211156200032d57600080fd5b6200033b8783880162000250565b935060408601519150808211156200035257600080fd5b50620003618682870162000250565b9150509250925092565b600181811c908216806200038057607f821691505b602082108103620003a157634e487b7160e01b600052602260045260246000fd5b50919050565b601f821115620003f557600081815260208120601f850160051c81016020861015620003d05750805b601f850160051c820191505b81811015620003f157828155600101620003dc565b5050505b505050565b81516001600160401b0381111562000416576200041662000214565b6200042e816200042784546200036b565b84620003a7565b602080601f8311600181146200046657600084156200044d5750858301515b600019600386901b1c1916600185901b178555620003f1565b600085815260208120601f198616915b82811015620004975788860151825594840194600190910190840162000476565b5085821015620004b65787850151600019600388901b60f8161c191681555b5050505050600190811b01905550565b60008251620004da8184602087016200022a565b9190910192915050565b600060208284031215620004f757600080fd5b5051919050565b60805160a05160c05161152662000543600039600081816102ff015261096f015260006105e101526000818161029a01528181610d690152610e1b01526115266000f3fe608060405234801561001057600080fd5b50600436106101e55760003560e01c80638010ff271161010f578063c50efb87116100a2578063d905777e11610071578063d905777e14610418578063dd62ed3e1461042b578063ef8b30f7146103f2578063f2fde38b1461046457600080fd5b8063c50efb87146103df578063c63d75b6146102d2578063c6e6f592146103f2578063ce96cb771461040557600080fd5b8063a9059cbb116100de578063a9059cbb14610393578063b3d7f6b9146103a6578063b460af94146103b9578063ba087652146103cc57600080fd5b80638010ff27146103545780638da5cb5b1461036757806394bf804d1461037857806395d89b411461038b57600080fd5b8063313ce567116101875780636e553f65116101565780636e553f65146102e75780636f307dc3146102fa57806370a0823114610321578063715018a61461034a57600080fd5b8063313ce5671461027e57806338d52e0f14610298578063402d267d146102d25780634cdad5061461021a57600080fd5b8063095ea7b3116101c3578063095ea7b31461022d5780630a28a4771461025057806318160ddd1461026357806323b872dd1461026b57600080fd5b806301e1d114146101ea57806306fdde031461020557806307a2d13a1461021a575b600080fd5b6101f2610477565b6040519081526020015b60405180910390f35b61020d6104e9565b6040516101fc9190611133565b6101f2610228366004611181565b61057b565b61024061023b3660046111b6565b61058e565b60405190151581526020016101fc565b6101f261025e366004611181565b6105a6565b6002546101f2565b6102406102793660046111e0565b6105b3565b6102866105d9565b60405160ff90911681526020016101fc565b7f00000000000000000000000000000000000000000000000000000000000000005b6040516001600160a01b0390911681526020016101fc565b6101f26102e036600461121c565b5060001990565b6101f26102f5366004611237565b610605565b6102ba7f000000000000000000000000000000000000000000000000000000000000000081565b6101f261032f36600461121c565b6001600160a01b031660009081526020819052604090205490565b610352610639565b005b6006546102ba906001600160a01b031681565b6005546001600160a01b03166102ba565b6101f2610386366004611237565b61064d565b61020d61066b565b6102406103a13660046111b6565b61067a565b6101f26103b4366004611181565b610688565b6101f26103c7366004611263565b610695565b6101f26103da366004611263565b6106ed565b6103526103ed36600461121c565b61073c565b6101f2610400366004611181565b610766565b6101f261041336600461121c565b610773565b6101f261042636600461121c565b610797565b6101f261043936600461129f565b6001600160a01b03918216600090815260016020908152604080832093909416825291909152205490565b61035261047236600461121c565b6107b5565b6006546040516370a0823160e01b81523060048201526000916001600160a01b0316906370a0823190602401602060405180830381865afa1580156104c0573d6000803e3d6000fd5b505050506040513d601f19601f820116820180604052508101906104e491906112c9565b905090565b6060600380546104f8906112e2565b80601f0160208091040260200160405190810160405280929190818152602001828054610524906112e2565b80156105715780601f1061054657610100808354040283529160200191610571565b820191906000526020600020905b81548152906001019060200180831161055457829003601f168201915b5050505050905090565b60006105888260006107f3565b92915050565b60003361059c81858561082d565b5060019392505050565b600061058882600161083f565b6000336105c185828561086f565b6105cc8585856108db565b60019150505b9392505050565b60006104e4817f0000000000000000000000000000000000000000000000000000000000000000611332565b6000600019610618565b60405180910390fd5b600061062385610766565b90506106313385878461093a565b949350505050565b610641610a43565b61064b6000610a70565b565b6000600019600061065d85610688565b90506106313385838861093a565b6060600480546104f8906112e2565b60003361059c8185856108db565b60006105888260016107f3565b6000806106a183610773565b9050808511156106ca57828582604051633fa733bb60e21b815260040161060f9392919061134b565b60006106d5866105a6565b90506106e43386868985610ac2565b95945050505050565b6000806106f983610797565b90508085111561072257828582604051632e52afbb60e21b815260040161060f9392919061134b565b600061072d8661057b565b90506106e4338686848a610ac2565b610744610a43565b600680546001600160a01b0319166001600160a01b0392909216919091179055565b600061058882600061083f565b6001600160a01b0381166000908152602081905260408120546105889060006107f3565b6001600160a01b038116600090815260208190526040812054610588565b6107bd610a43565b6001600160a01b0381166107e757604051631e4fbdf760e01b81526000600482015260240161060f565b6107f081610a70565b50565b60006105d2610800610477565b61080b90600161136c565b6108176000600a611463565b600254610824919061136c565b85919085610b34565b61083a8383836001610b78565b505050565b60006105d261084f82600a611463565b60025461085c919061136c565b610864610477565b61082490600161136c565b6001600160a01b038381166000908152600160209081526040808320938616835292905220546000198110156108d557818110156108c657828183604051637dc7a0d960e11b815260040161060f9392919061134b565b6108d584848484036000610b78565b50505050565b6001600160a01b03831661090557604051634b637e8f60e11b81526000600482015260240161060f565b6001600160a01b03821661092f5760405163ec442f0560e01b81526000600482015260240161060f565b61083a838383610c4d565b61094684848484610d64565b60065460405163095ea7b360e01b81526001600160a01b039182166004820152602481018490527f00000000000000000000000000000000000000000000000000000000000000009091169063095ea7b3906044016020604051808303816000875af11580156109ba573d6000803e3d6000fd5b505050506040513d601f19601f820116820180604052508101906109de9190611472565b5060065460405163b6b55f2560e01b8152600481018490526001600160a01b039091169063b6b55f2590602401600060405180830381600087803b158015610a2557600080fd5b505af1158015610a39573d6000803e3d6000fd5b5050505050505050565b6005546001600160a01b0316331461064b5760405163118cdaa760e01b815233600482015260240161060f565b600580546001600160a01b038381166001600160a01b0319831681179093556040519116919082907f8be0079c531659141344cd1fd0a4f28419497f9722a3daafe3b4186f6b6457e090600090a35050565b600654604051632e1a7d4d60e01b8152600481018490526001600160a01b0390911690632e1a7d4d90602401600060405180830381600087803b158015610b0857600080fd5b505af1158015610b1c573d6000803e3d6000fd5b50505050610b2d8585858585610de8565b5050505050565b6000610b63610b4283610ea8565b8015610b5e575060008480610b5957610b59611494565b868809115b151590565b610b6e868686610ed5565b6106e4919061136c565b6001600160a01b038416610ba25760405163e602df0560e01b81526000600482015260240161060f565b6001600160a01b038316610bcc57604051634a1406b160e11b81526000600482015260240161060f565b6001600160a01b03808516600090815260016020908152604080832093871683529290522082905580156108d557826001600160a01b0316846001600160a01b03167f8c5be1e5ebec7d5bd14f71427d1e84f3dd0314c0f7b2291e5b200ac8c7c3b92584604051610c3f91815260200190565b60405180910390a350505050565b6001600160a01b038316610c78578060026000828254610c6d919061136c565b90915550610cd79050565b6001600160a01b03831660009081526020819052604090205481811015610cb85783818360405163391434e360e21b815260040161060f9392919061134b565b6001600160a01b03841660009081526020819052604090209082900390555b6001600160a01b038216610cf357600280548290039055610d12565b6001600160a01b03821660009081526020819052604090208054820190555b816001600160a01b0316836001600160a01b03167fddf252ad1be2c89b69c2b068fc378daa952ba7f163c4a11628f55a4df523b3ef83604051610d5791815260200190565b60405180910390a3505050565b610d907f0000000000000000000000000000000000000000000000000000000000000000853085610f8a565b610d9a8382610ff1565b826001600160a01b0316846001600160a01b03167fdcbc1c05240f31ff3ad067ef1ee35ce4997762752e3a095284754544f4c709d78484604051610c3f929190918252602082015260400190565b826001600160a01b0316856001600160a01b031614610e0c57610e0c83868361086f565b610e16838261102b565b610e417f00000000000000000000000000000000000000000000000000000000000000008584611061565b826001600160a01b0316846001600160a01b0316866001600160a01b03167ffbde797d201c681b91056529119e0b02407c7bb96a4a2c75c01fc9667232c8db8585604051610e99929190918252602082015260400190565b60405180910390a45050505050565b60006002826003811115610ebe57610ebe6114aa565b610ec891906114c0565b60ff166001149050919050565b6000806000610ee48686611092565b9150915081600003610f0957838181610eff57610eff611494565b04925050506105d2565b818411610f2057610f2060038515026011186110b0565b6000848688096000868103871696879004966002600389028118808a02820302808a02820302808a02820302808a02820302808a02820302808a02909103029181900381900460010185841190960395909502919093039390930492909217029150509392505050565b6040516001600160a01b0384811660248301528381166044830152606482018390526108d59186918216906323b872dd906084015b604051602081830303815290604052915060e01b6020820180516001600160e01b0383818316178352505050506110c2565b6001600160a01b03821661101b5760405163ec442f0560e01b81526000600482015260240161060f565b61102760008383610c4d565b5050565b6001600160a01b03821661105557604051634b637e8f60e11b81526000600482015260240161060f565b61102782600083610c4d565b6040516001600160a01b0383811660248301526044820183905261083a91859182169063a9059cbb90606401610fbf565b60008060001983850993909202808410938190039390930393915050565b634e487b71600052806020526024601cfd5b600080602060008451602086016000885af1806110e5576040513d6000823e3d81fd5b50506000513d915081156110fd57806001141561110a565b6001600160a01b0384163b155b156108d557604051635274afe760e01b81526001600160a01b038516600482015260240161060f565b600060208083528351808285015260005b8181101561116057858101830151858201604001528201611144565b506000604082860101526040601f19601f8301168501019250505092915050565b60006020828403121561119357600080fd5b5035919050565b80356001600160a01b03811681146111b157600080fd5b919050565b600080604083850312156111c957600080fd5b6111d28361119a565b946020939093013593505050565b6000806000606084860312156111f557600080fd5b6111fe8461119a565b925061120c6020850161119a565b9150604084013590509250925092565b60006020828403121561122e57600080fd5b6105d28261119a565b6000806040838503121561124a57600080fd5b8235915061125a6020840161119a565b90509250929050565b60008060006060848603121561127857600080fd5b833592506112886020850161119a565b91506112966040850161119a565b90509250925092565b600080604083850312156112b257600080fd5b6112bb8361119a565b915061125a6020840161119a565b6000602082840312156112db57600080fd5b5051919050565b600181811c908216806112f657607f821691505b60208210810361131657634e487b7160e01b600052602260045260246000fd5b50919050565b634e487b7160e01b600052601160045260246000fd5b60ff81811683821601908111156105885761058861131c565b6001600160a01b039390931683526020830191909152604082015260600190565b808201808211156105885761058861131c565b600181815b808511156113ba5781600019048211156113a0576113a061131c565b808516156113ad57918102915b93841c9390800290611384565b509250929050565b6000826113d157506001610588565b816113de57506000610588565b81600181146113f457600281146113fe5761141a565b6001915050610588565b60ff84111561140f5761140f61131c565b50506001821b610588565b5060208310610133831016604e8410600b841016171561143d575081810a610588565b611447838361137f565b806000190482111561145b5761145b61131c565b029392505050565b60006105d260ff8416836113c2565b60006020828403121561148457600080fd5b815180151581146105d257600080fd5b634e487b7160e01b600052601260045260246000fd5b634e487b7160e01b600052602160045260246000fd5b600060ff8316806114e157634e487b7160e01b600052601260045260246000fd5b8060ff8416069150509291505056fea264697066735822122029b470473000461054a08a7db11bd55c6731df41ff1869adb3ef88447c6f9a3c64736f6c63430008140033",
  "linkReferences": {},
  "deployedLinkReferences": {}
}