{
  "_format": "hh-sol-artifact-1",
  "contractName": "LuckyScratch",
  "sourceName": "contracts/LuckyScratch.sol",
  "abi": [
    {
      "inputs": [],
      "stateMutability": "nonpayable",
      "type": "constructor"
    },
    {
      "inputs": [
        {
          "internalType": "address",
          "name": "sender",
          "type": "address"
        },
        {
          "internalType": "uint256",
          "name": "tokenId",
          "type": "uint256"
        },
        {
          "internalType": "address",
          "name": "owner",
          "type": "address"
        }
      ],
      "name": "ERC721IncorrectOwner",
      "type": "error"
    },
    {
      "inputs": [
        {
          "internalType": "address",
          "name": "operator",
          "type": "address"
        },
        {
          "internalType": "uint256",
          "name": "tokenId",
          "type": "uint256"
        }
      ],
      "name": "ERC721InsufficientApproval",
      "type": "error"
    },
    {
      "inputs": [
        {
          "internalType": "address",
          "name": "approver",
          "type": "address"
        }
      ],
      "name": "ERC721InvalidApprover",
      "type": "error"
    },
    {
      "inputs": [
        {
          "internalType": "address",
          "name": "operator",
          "type": "address"
        }
      ],
      "name": "ERC721InvalidOperator",
      "type": "error"
    },
    {
      "inputs": [
        {
          "internalType": "address",
          "name": "owner",
          "type": "address"
        }
      ],
      "name": "ERC721InvalidOwner",
      "type": "error"
    },
    {
      "inputs": [
        {
          "internalType": "address",
          "name": "receiver",
          "type": "address"
        }
      ],
      "name": "ERC721InvalidReceiver",
      "type": "error"
    },
    {
      "inputs": [
        {
          "internalType": "address",
          "name": "sender",
          "type": "address"
        }
      ],
      "name": "ERC721InvalidSender",
      "type": "error"
    },
    {
      "inputs": [
        {
          "internalType": "uint256",
          "name": "tokenId",
          "type": "uint256"
        }
      ],
      "name": "ERC721NonexistentToken",
      "type": "error"
    },
    {
      "inputs": [
        {
          "internalType": "address",
          "name": "owner",
          "type": "address"
        }
      ],
      "name": "OwnableInvalidOwner",
      "type": "error"
    },
    {
      "inputs": [
        {
          "internalType": "address",
          "name": "account",
          "type": "address"
        }
      ],
      "name": "OwnableUnauthorizedAccount",
      "type": "error"
    },
    {
      "anonymous": false,
      "inputs": [
        {
          "indexed": true,
          "internalType": "address",
          "name": "owner",
          "type": "address"
        },
        {
          "indexed": true,
          "internalType": "address",
          "name": "approved",
          "type": "address"
        },
        {
          "indexed": true,
          "internalType": "uint256",
          "name": "tokenId",
          "type": "uint256"
        }
      ],
      "name": "Approval",
      "type": "event"
    },
    {
      "anonymous": false,
      "inputs": [
        {
          "indexed": true,
          "internalType": "address",
          "name": "owner",
          "type": "address"
        },
        {
          "indexed": true,
          "internalType": "address",
          "name": "operator",
          "type": "address"
        },
        {
          "indexed": false,
          "internalType": "bool",
          "name": "approved",
          "type": "bool"
        }
      ],
      "name": "ApprovalForAll",
      "type": "event"
    },
    {
      "anonymous": false,
      "inputs": [
        {
          "indexed": false,
          "internalType": "uint256",
          "name": "_fromTokenId",
          "type": "uint256"
        },
        {
          "indexed": false,
          "internalType": "uint256",
          "name": "_toTokenId",
          "type": "uint256"
        }
      ],
      "name": "BatchMetadataUpdate",
      "type": "event"
    },
    {
      "anonymous": false,
      "inputs": [
        {
          "indexed": false,
          "internalType": "uint256",
          "name": "_tokenId",
          "type": "uint256"
        }
      ],
      "name": "MetadataUpdate",
      "type": "event"
    },
    {
      "anonymous": false,
      "inputs": [
        {
          "indexed": true,
          "internalType": "address",
          "name": "previousOwner",
          "type": "address"
        },
        {
          "indexed": true,
          "internalType": "address",
          "name": "newOwner",
          "type": "address"
        }
      ],
      "name": "OwnershipTransferred",
      "type": "event"
    },
    {
      "anonymous": false,
      "inputs": [
        {
          "indexed": true,
          "internalType": "address",
          "name": "from",
          "type": "address"
        },
        {
          "indexed": true,
          "internalType": "address",
          "name": "to",
          "type": "address"
        },
        {
          "indexed": true,
          "internalType": "uint256",
          "name": "tokenId",
          "type": "uint256"
        }
      ],
      "name": "Transfer",
      "type": "event"
    },
    {
      "inputs": [
        {
          "internalType": "address",
          "name": "to",
          "type": "address"
        },
        {
          "internalType": "uint256",
          "name": "tokenId",
          "type": "uint256"
        }
      ],
      "name": "approve",
      "outputs": [],
      "stateMutability": "nonpayable",
      "type": "function"
    },
    {
      "inputs": [
        {
          "internalType": "address",
          "name": "owner",
          "type": "address"
        }
      ],
      "name": "balanceOf",
      "outputs": [
        {
          "internalType": "uint256",
          "name": "",
          "type": "uint256"
        }
      ],
      "stateMutability": "view",
      "type": "function"
    },
    {
      "inputs": [
        {
          "internalType": "uint256",
          "name": "_tokenId",
          "type": "uint256"
        }
      ],
      "name": "claimPrize",
      "outputs": [],
      "stateMutability": "nonpayable",
      "type": "function"
    },
    {
      "inputs": [
        {
          "internalType": "uint256",
          "name": "tokenId",
          "type": "uint256"
        }
      ],
      "name": "getApproved",
      "outputs": [
        {
          "internalType": "address",
          "name": "",
          "type": "address"
        }
      ],
      "stateMutability": "view",
      "type": "function"
    },
    {
      "inputs": [
        {
          "internalType": "enum LuckyScratch.PrizeLevel",
          "name": "level",
          "type": "uint8"
        }
      ],
      "name": "getPrizeAmount",
      "outputs": [
        {
          "internalType": "uint256",
          "name": "",
          "type": "uint256"
        }
      ],
      "stateMutability": "view",
      "type": "function"
    },
    {
      "inputs": [
        {
          "internalType": "address",
          "name": "owner",
          "type": "address"
        },
        {
          "internalType": "address",
          "name": "operator",
          "type": "address"
        }
      ],
      "name": "isApprovedForAll",
      "outputs": [
        {
          "internalType": "bool",
          "name": "",
          "type": "bool"
        }
      ],
      "stateMutability": "view",
      "type": "function"
    },
    {
      "inputs": [],
      "name": "mint",
      "outputs": [],
      "stateMutability": "payable",
      "type": "function"
    },
    {
      "inputs": [],
      "name": "name",
      "outputs": [
        {
          "internalType": "string",
          "name": "",
          "type": "string"
        }
      ],
      "stateMutability": "view",
      "type": "function"
    },
    {
      "inputs": [],
      "name": "owner",
      "outputs": [
        {
          "internalType": "address",
          "name": "",
          "type": "address"
        }
      ],
      "stateMutability": "view",
      "type": "function"
    },
    {
      "inputs": [
        {
          "internalType": "uint256",
          "name": "tokenId",
          "type": "uint256"
        }
      ],
      "name": "ownerOf",
      "outputs": [
        {
          "internalType": "address",
          "name": "",
          "type": "address"
        }
      ],
      "stateMutability": "view",
      "type": "function"
    },
    {
      "inputs": [],
      "name": "renounceOwnership",
      "outputs": [],
      "stateMutability": "nonpayable",
      "type": "function"
    },
    {
      "inputs": [
        {
          "internalType": "address",
          "name": "from",
          "type": "address"
        },
        {
          "internalType": "address",
          "name": "to",
          "type": "address"
        },
        {
          "internalType": "uint256",
          "name": "tokenId",
          "type": "uint256"
        }
      ],
      "name": "safeTransferFrom",
      "outputs": [],
      "stateMutability": "nonpayable",
      "type": "function"
    },
    {
      "inputs": [
        {
          "internalType": "address",
          "name": "from",
          "type": "address"
        },
        {
          "internalType": "address",
          "name": "to",
          "type": "address"
        },
        {
          "internalType": "uint256",
          "name": "tokenId",
          "type": "uint256"
        },
        {
          "internalType": "bytes",
          "name": "data",
          "type": "bytes"
        }
      ],
      "name": "safeTransferFrom",
      "outputs": [],
      "stateMutability": "nonpayable",
      "type": "function"
    },
    {
      "inputs": [
        {
          "internalType": "address",
          "name": "operator",
          "type": "address"
        },
        {
          "internalType": "bool",
          "name": "approved",
          "type": "bool"
        }
      ],
      "name": "setApprovalForAll",
      "outputs": [],
      "stateMutability": "nonpayable",
      "type": "function"
    },
    {
      "inputs": [
        {
          "internalType": "bytes4",
          "name": "interfaceId",
          "type": "bytes4"
        }
      ],
      "name": "supportsInterface",
      "outputs": [
        {
          "internalType": "bool",
          "name": "",
          "type": "bool"
        }
      ],
      "stateMutability": "view",
      "type": "function"
    },
    {
      "inputs": [],
      "name": "symbol",
      "outputs": [
        {
          "internalType": "string",
          "name": "",
          "type": "string"
        }
      ],
      "stateMutability": "view",
      "type": "function"
    },
    {
      "inputs": [
        {
          "internalType": "uint256",
          "name": "",
          "type": "uint256"
        }
      ],
      "name": "ticketData",
      "outputs": [
        {
          "internalType": "bool",
          "name": "isWinning",
          "type": "bool"
        },
        {
          "internalType": "enum LuckyScratch.PrizeLevel",
          "name": "level",
          "type": "uint8"
        },
        {
          "internalType": "bool",
          "name": "isClaimed",
          "type": "bool"
        }
      ],
      "stateMutability": "view",
      "type": "function"
    },
    {
      "inputs": [],
      "name": "ticketPrice",
      "outputs": [
        {
          "internalType": "uint256",
          "name": "",
          "type": "uint256"
        }
      ],
      "stateMutability": "view",
      "type": "function"
    },
    {
      "inputs": [],
      "name": "tokenId",
      "outputs": [
        {
          "internalType": "uint256",
          "name": "",
          "type": "uint256"
        }
      ],
      "stateMutability": "view",
      "type": "function"
    },
    {
      "inputs": [
        {
          "internalType": "uint256",
          "name": "tokenId",
          "type": "uint256"
        }
      ],
      "name": "tokenURI",
      "outputs": [
        {
          "internalType": "string",
          "name": "",
          "type": "string"
        }
      ],
      "stateMutability": "view",
      "type": "function"
    },
    {
      "inputs": [],
      "name": "totalPool",
      "outputs": [
        {
          "internalType": "uint256",
          "name": "",
          "type": "uint256"
        }
      ],
      "stateMutability": "view",
      "type": "function"
    },
    {
      "inputs": [
        {
          "internalType": "address",
          "name": "from",
          "type": "address"
        },
        {
          "internalType": "address",
          "name": "to",
          "type": "address"
        },
        {
          "internalType": "uint256",
          "name": "tokenId",
          "type": "uint256"
        }
      ],
      "name": "transferFrom",
      "outputs": [],
      "stateMutability": "nonpayable",
      "type": "function"
    },
    {
      "inputs": [
        {
          "internalType": "address",
          "name": "newOwner",
          "type": "address"
        }
      ],
      "name": "transferOwnership",
      "outputs": [],
      "stateMutability": "nonpayable",
      "type": "function"
    },
    {
      "inputs": [
        {
          "internalType": "uint256",
          "name": "_tokenId",
          "type": "uint256"
        }
      ],
      "name": "viewResult",
      "outputs": [
        {
          "internalType": "bool",
          "name": "",
          "type": "bool"
        },
        {
          "internalType": "enum LuckyScratch.PrizeLevel",
          "name": "",
          "type": "uint8"
        }
      ],
      "stateMutability": "view",
      "type": "function"
    },
    {
      "inputs": [],
      "name": "withdraw",
      "outputs": [],
      "stateMutability": "nonpayable",
      "type": "function"
    }
  ],
  "bytecode": "0x6080604052662386f26fc100006009553480156200001c57600080fd5b50336040518060400160405280600c81526020017f4c75636b795363726174636800000000000000000000000000000000000000008152506040518060400160405280600581526020017f4c534e465400000000000000000000000000000000000000000000000000000081525081600090816200009b91906200047d565b508060019081620000ad91906200047d565b505050600073ffffffffffffffffffffffffffffffffffffffff168173ffffffffffffffffffffffffffffffffffffffff1603620001255760006040517f1e4fbdf70000000000000000000000000000000000000000000000000000000081526004016200011c9190620005a9565b60405180910390fd5b62000136816200013d60201b60201c565b50620005c6565b6000600760009054906101000a900473ffffffffffffffffffffffffffffffffffffffff16905081600760006101000a81548173ffffffffffffffffffffffffffffffffffffffff021916908373ffffffffffffffffffffffffffffffffffffffff1602179055508173ffffffffffffffffffffffffffffffffffffffff168173ffffffffffffffffffffffffffffffffffffffff167f8be0079c531659141344cd1fd0a4f28419497f9722a3daafe3b4186f6b6457e060405160405180910390a35050565b600081519050919050565b7f4e487b7100000000000000000000000000000000000000000000000000000000600052604160045260246000fd5b7f4e487b7100000000000000000000000000000000000000000000000000000000600052602260045260246000fd5b600060028204905060018216806200028557607f821691505b6020821081036200029b576200029a6200023d565b5b50919050565b60008190508160005260206000209050919050565b60006020601f8301049050919050565b600082821b905092915050565b600060088302620003057fffffffffffffffffffffffffffffffffffffffffffffffffffffffffffffffff82620002c6565b620003118683620002c6565b95508019841693508086168417925050509392505050565b6000819050919050565b6000819050919050565b60006200035e62000358620003528462000329565b62000333565b62000329565b9050919050565b6000819050919050565b6200037a836200033d565b62000392620003898262000365565b848454620002d3565b825550505050565b600090565b620003a96200039a565b620003b68184846200036f565b505050565b5b81811015620003de57620003d26000826200039f565b600181019050620003bc565b5050565b601f8211156200042d57620003f781620002a1565b6200040284620002b6565b8101602085101562000412578190505b6200042a6200042185620002b6565b830182620003bb565b50505b505050565b600082821c905092915050565b6000620004526000198460080262000432565b1980831691505092915050565b60006200046d83836200043f565b9150826002028217905092915050565b620004888262000203565b67ffffffffffffffff811115620004a457620004a36200020e565b5b620004b082546200026c565b620004bd828285620003e2565b600060209050601f831160018114620004f55760008415620004e0578287015190505b620004ec85826200045f565b8655506200055c565b601f1984166200050586620002a1565b60005b828110156200052f5784890151825560018201915060208501945060208101905062000508565b868310156200054f57848901516200054b601f8916826200043f565b8355505b6001600288020188555050505b505050505050565b600073ffffffffffffffffffffffffffffffffffffffff82169050919050565b6000620005918262000564565b9050919050565b620005a38162000584565b82525050565b6000602082019050620005c0600083018462000598565b92915050565b61320280620005d66000396000f3fe6080604052600436106101665760003560e01c80636352211e116100d1578063b88d4fde1161008a578063e47e8cf311610064578063e47e8cf31461051d578063e985e9c51461055b578063ecfb49a314610598578063f2fde38b146105c357610166565b8063b88d4fde1461048e578063c87b56dd146104b7578063d7098154146104f457610166565b80636352211e1461037e57806370a08231146103bb578063715018a6146103f85780638da5cb5b1461040f57806395d89b411461043a578063a22cb4651461046557610166565b806317d70f7c1161012357806317d70f7c1461026e57806323b872dd146102995780633486c2d7146102c2578063394803fd146102ff5780633ccfd60b1461033e57806342842e0e1461035557610166565b806301ffc9a71461016b57806306fdde03146101a8578063081812fc146101d3578063095ea7b3146102105780631209b1f6146102395780631249c58b14610264575b600080fd5b34801561017757600080fd5b50610192600480360381019061018d91906124de565b6105ec565b60405161019f9190612526565b60405180910390f35b3480156101b457600080fd5b506101bd61064d565b6040516101ca91906125d1565b60405180910390f35b3480156101df57600080fd5b506101fa60048036038101906101f59190612629565b6106df565b6040516102079190612697565b60405180910390f35b34801561021c57600080fd5b50610237600480360381019061023291906126de565b6106fb565b005b34801561024557600080fd5b5061024e610711565b60405161025b919061272d565b60405180910390f35b61026c610717565b005b34801561027a57600080fd5b50610283610a17565b604051610290919061272d565b60405180910390f35b3480156102a557600080fd5b506102c060048036038101906102bb9190612748565b610a1d565b005b3480156102ce57600080fd5b506102e960048036038101906102e491906127c0565b610b1f565b6040516102f6919061272d565b60405180910390f35b34801561030b57600080fd5b5061032660048036038101906103219190612629565b610c9c565b60405161033593929190612864565b60405180910390f35b34801561034a57600080fd5b50610353610ced565b005b34801561036157600080fd5b5061037c60048036038101906103779190612748565b610d58565b005b34801561038a57600080fd5b506103a560048036038101906103a09190612629565b610d78565b6040516103b29190612697565b60405180910390f35b3480156103c757600080fd5b506103e260048036038101906103dd919061289b565b610d8a565b6040516103ef919061272d565b60405180910390f35b34801561040457600080fd5b5061040d610e44565b005b34801561041b57600080fd5b50610424610e58565b6040516104319190612697565b60405180910390f35b34801561044657600080fd5b5061044f610e82565b60405161045c91906125d1565b60405180910390f35b34801561047157600080fd5b5061048c600480360381019061048791906128f4565b610f14565b005b34801561049a57600080fd5b506104b560048036038101906104b09190612a69565b610f2a565b005b3480156104c357600080fd5b506104de60048036038101906104d99190612629565b610f4f565b6040516104eb91906125d1565b60405180910390f35b34801561050057600080fd5b5061051b60048036038101906105169190612629565b611062565b005b34801561052957600080fd5b50610544600480360381019061053f9190612629565b61125c565b604051610552929190612aec565b60405180910390f35b34801561056757600080fd5b50610582600480360381019061057d9190612b15565b611306565b60405161058f9190612526565b60405180910390f35b3480156105a457600080fd5b506105ad61139a565b6040516105ba919061272d565b60405180910390f35b3480156105cf57600080fd5b506105ea60048036038101906105e5919061289b565b6113a0565b005b6000634906490660e01b7bffffffffffffffffffffffffffffffffffffffffffffffffffffffff1916827bffffffffffffffffffffffffffffffffffffffffffffffffffffffff19161480610646575061064582611426565b5b9050919050565b60606000805461065c90612b84565b80601f016020809104026020016040519081016040528092919081815260200182805461068890612b84565b80156106d55780601f106106aa576101008083540402835291602001916106d5565b820191906000526020600020905b8154815290600101906020018083116106b857829003601f168201915b5050505050905090565b60006106ea82611508565b506106f482611590565b9050919050565b61070d82826107086115cd565b6115d5565b5050565b60095481565b600954341461075b576040517f08c379a000000000000000000000000000000000000000000000000000000000815260040161075290612c01565b60405180910390fd5b6008600081548092919061076e90612c50565b919050555061077f336008546115e7565b6000612710423360085460405160200161079b93929190612d01565b6040516020818303038152906040528051906020012060001c6107be9190612d6d565b90506107c861243b565b600a82101561080b5760405180606001604052806001151581526020016005808111156107f8576107f76127ed565b5b8152602001600015158152509050610959565b606e82101561084f5760405180606001604052806001151581526020016004600581111561083c5761083b6127ed565b5b8152602001600015158152509050610958565b61026282101561089457604051806060016040528060011515815260200160036005811115610881576108806127ed565b5b8152602001600015158152509050610957565b61064a8210156108d9576040518060600160405280600115158152602001600260058111156108c6576108c56127ed565b5b8152602001600015158152509050610956565b610c2682101561091e5760405180606001604052806001151581526020016001600581111561090b5761090a6127ed565b5b8152602001600015158152509050610955565b604051806060016040528060001515815260200160006005811115610946576109456127ed565b5b81526020016000151581525090505b5b5b5b5b80600b6000600854815260200190815260200160002060008201518160000160006101000a81548160ff02191690831515021790555060208201518160000160016101000a81548160ff021916908360058111156109ba576109b96127ed565b5b021790555060408201518160000160026101000a81548160ff02191690831515021790555090505060646062346109f19190612d9e565b6109fb9190612de0565b600a6000828254610a0c9190612e11565b925050819055505050565b60085481565b600073ffffffffffffffffffffffffffffffffffffffff168273ffffffffffffffffffffffffffffffffffffffff1603610a8f5760006040517f64a0ae92000000000000000000000000000000000000000000000000000000008152600401610a869190612697565b60405180910390fd5b6000610aa38383610a9e6115cd565b611605565b90508373ffffffffffffffffffffffffffffffffffffffff168173ffffffffffffffffffffffffffffffffffffffff1614610b19578382826040517f64283d7b000000000000000000000000000000000000000000000000000000008152600401610b1093929190612e45565b60405180910390fd5b50505050565b6000600580811115610b3457610b336127ed565b5b826005811115610b4757610b466127ed565b5b03610b6e5760646032600a54610b5d9190612d9e565b610b679190612de0565b9050610c97565b60046005811115610b8257610b816127ed565b5b826005811115610b9557610b946127ed565b5b03610bbc5760646014600a54610bab9190612d9e565b610bb59190612de0565b9050610c97565b60036005811115610bd057610bcf6127ed565b5b826005811115610be357610be26127ed565b5b03610c09576064600a8054610bf89190612d9e565b610c029190612de0565b9050610c97565b60026005811115610c1d57610c1c6127ed565b5b826005811115610c3057610c2f6127ed565b5b03610c575760646005600a54610c469190612d9e565b610c509190612de0565b9050610c97565b60016005811115610c6b57610c6a6127ed565b5b826005811115610c7e57610c7d6127ed565b5b03610c92576611c37937e080009050610c97565b600090505b919050565b600b6020528060005260406000206000915090508060000160009054906101000a900460ff16908060000160019054906101000a900460ff16908060000160029054906101000a900460ff16905083565b610cf561181f565b6000600a5447610d059190612e7c565b9050610d0f610e58565b73ffffffffffffffffffffffffffffffffffffffff166108fc829081150290604051600060405180830381858888f19350505050158015610d54573d6000803e3d6000fd5b5050565b610d7383838360405180602001604052806000815250610f2a565b505050565b6000610d8382611508565b9050919050565b60008073ffffffffffffffffffffffffffffffffffffffff168273ffffffffffffffffffffffffffffffffffffffff1603610dfd5760006040517f89c62b64000000000000000000000000000000000000000000000000000000008152600401610df49190612697565b60405180910390fd5b600360008373ffffffffffffffffffffffffffffffffffffffff1673ffffffffffffffffffffffffffffffffffffffff168152602001908152602001600020549050919050565b610e4c61181f565b610e5660006118a6565b565b6000600760009054906101000a900473ffffffffffffffffffffffffffffffffffffffff16905090565b606060018054610e9190612b84565b80601f0160208091040260200160405190810160405280929190818152602001828054610ebd90612b84565b8015610f0a5780601f10610edf57610100808354040283529160200191610f0a565b820191906000526020600020905b815481529060010190602001808311610eed57829003601f168201915b5050505050905090565b610f26610f1f6115cd565b838361196c565b5050565b610f35848484610a1d565b610f49610f406115cd565b85858585611adb565b50505050565b6060610f5a82611508565b506000600660008481526020019081526020016000208054610f7b90612b84565b80601f0160208091040260200160405190810160405280929190818152602001828054610fa790612b84565b8015610ff45780601f10610fc957610100808354040283529160200191610ff4565b820191906000526020600020905b815481529060010190602001808311610fd757829003601f168201915b505050505090506000611005611c8c565b9050600081510361101a57819250505061105d565b60008251111561104f578082604051602001611037929190612eec565b6040516020818303038152906040529250505061105d565b61105884611ca3565b925050505b919050565b3373ffffffffffffffffffffffffffffffffffffffff1661108282610d78565b73ffffffffffffffffffffffffffffffffffffffff16146110d8576040517f08c379a00000000000000000000000000000000000000000000000000000000081526004016110cf90612f5c565b60405180910390fd5b6000600b600083815260200190815260200160002090508060000160009054906101000a900460ff16611140576040517f08c379a000000000000000000000000000000000000000000000000000000000815260040161113790612fc8565b60405180910390fd5b8060000160029054906101000a900460ff1615611192576040517f08c379a000000000000000000000000000000000000000000000000000000000815260040161118990613034565b60405180910390fd5b60006111ae8260000160019054906101000a900460ff16610b1f565b9050804710156111f3576040517f08c379a00000000000000000000000000000000000000000000000000000000081526004016111ea906130a0565b60405180910390fd5b60018260000160026101000a81548160ff0219169083151502179055503373ffffffffffffffffffffffffffffffffffffffff166108fc829081150290604051600060405180830381858888f19350505050158015611256573d6000803e3d6000fd5b50505050565b6000806000600b60008581526020019081526020016000206040518060600160405290816000820160009054906101000a900460ff161515151581526020016000820160019054906101000a900460ff1660058111156112bf576112be6127ed565b5b60058111156112d1576112d06127ed565b5b81526020016000820160029054906101000a900460ff1615151515815250509050806000015181602001519250925050915091565b6000600560008473ffffffffffffffffffffffffffffffffffffffff1673ffffffffffffffffffffffffffffffffffffffff16815260200190815260200160002060008373ffffffffffffffffffffffffffffffffffffffff1673ffffffffffffffffffffffffffffffffffffffff16815260200190815260200160002060009054906101000a900460ff16905092915050565b600a5481565b6113a861181f565b600073ffffffffffffffffffffffffffffffffffffffff168173ffffffffffffffffffffffffffffffffffffffff160361141a5760006040517f1e4fbdf70000000000000000000000000000000000000000000000000000000081526004016114119190612697565b60405180910390fd5b611423816118a6565b50565b60007f80ac58cd000000000000000000000000000000000000000000000000000000007bffffffffffffffffffffffffffffffffffffffffffffffffffffffff1916827bffffffffffffffffffffffffffffffffffffffffffffffffffffffff191614806114f157507f5b5e139f000000000000000000000000000000000000000000000000000000007bffffffffffffffffffffffffffffffffffffffffffffffffffffffff1916827bffffffffffffffffffffffffffffffffffffffffffffffffffffffff1916145b80611501575061150082611d0c565b5b9050919050565b60008061151483611d76565b9050600073ffffffffffffffffffffffffffffffffffffffff168173ffffffffffffffffffffffffffffffffffffffff160361158757826040517f7e27328900000000000000000000000000000000000000000000000000000000815260040161157e919061272d565b60405180910390fd5b80915050919050565b60006004600083815260200190815260200160002060009054906101000a900473ffffffffffffffffffffffffffffffffffffffff169050919050565b600033905090565b6115e28383836001611db3565b505050565b611601828260405180602001604052806000815250611f78565b5050565b60008061161184611d76565b9050600073ffffffffffffffffffffffffffffffffffffffff168373ffffffffffffffffffffffffffffffffffffffff161461165357611652818486611f9c565b5b600073ffffffffffffffffffffffffffffffffffffffff168173ffffffffffffffffffffffffffffffffffffffff16146116e457611695600085600080611db3565b6001600360008373ffffffffffffffffffffffffffffffffffffffff1673ffffffffffffffffffffffffffffffffffffffff168152602001908152602001600020600082825403925050819055505b600073ffffffffffffffffffffffffffffffffffffffff168573ffffffffffffffffffffffffffffffffffffffff1614611767576001600360008773ffffffffffffffffffffffffffffffffffffffff1673ffffffffffffffffffffffffffffffffffffffff168152602001908152602001600020600082825401925050819055505b846002600086815260200190815260200160002060006101000a81548173ffffffffffffffffffffffffffffffffffffffff021916908373ffffffffffffffffffffffffffffffffffffffff160217905550838573ffffffffffffffffffffffffffffffffffffffff168273ffffffffffffffffffffffffffffffffffffffff167fddf252ad1be2c89b69c2b068fc378daa952ba7f163c4a11628f55a4df523b3ef60405160405180910390a4809150509392505050565b6118276115cd565b73ffffffffffffffffffffffffffffffffffffffff16611845610e58565b73ffffffffffffffffffffffffffffffffffffffff16146118a4576118686115cd565b6040517f118cdaa700000000000000000000000000000000000000000000000000000000815260040161189b9190612697565b60405180910390fd5b565b6000600760009054906101000a900473ffffffffffffffffffffffffffffffffffffffff16905081600760006101000a81548173ffffffffffffffffffffffffffffffffffffffff021916908373ffffffffffffffffffffffffffffffffffffffff1602179055508173ffffffffffffffffffffffffffffffffffffffff168173ffffffffffffffffffffffffffffffffffffffff167f8be0079c531659141344cd1fd0a4f28419497f9722a3daafe3b4186f6b6457e060405160405180910390a35050565b600073ffffffffffffffffffffffffffffffffffffffff168273ffffffffffffffffffffffffffffffffffffffff16036119dd57816040517f5b08ba180000000000000000000000000000000000000000000000000000000081526004016119d49190612697565b60405180910390fd5b80600560008573ffffffffffffffffffffffffffffffffffffffff1673ffffffffffffffffffffffffffffffffffffffff16815260200190815260200160002060008473ffffffffffffffffffffffffffffffffffffffff1673ffffffffffffffffffffffffffffffffffffffff16815260200190815260200160002060006101000a81548160ff0219169083151502179055508173ffffffffffffffffffffffffffffffffffffffff168373ffffffffffffffffffffffffffffffffffffffff167f17307eab39ab6107e8899845ad3d59bd9653f200f220920489ca2b5937696c3183604051611ace9190612526565b60405180910390a3505050565b60008373ffffffffffffffffffffffffffffffffffffffff163b1115611c85578273ffffffffffffffffffffffffffffffffffffffff1663150b7a02868685856040518563ffffffff1660e01b8152600401611b3a9493929190613115565b6020604051808303816000875af1925050508015611b7657506040513d601f19601f82011682018060405250810190611b739190613176565b60015b611bfa573d8060008114611ba6576040519150601f19603f3d011682016040523d82523d6000602084013e611bab565b606091505b506000815103611bf257836040517f64a0ae92000000000000000000000000000000000000000000000000000000008152600401611be99190612697565b60405180910390fd5b805181602001fd5b63150b7a0260e01b7bffffffffffffffffffffffffffffffffffffffffffffffffffffffff1916817bffffffffffffffffffffffffffffffffffffffffffffffffffffffff191614611c8357836040517f64a0ae92000000000000000000000000000000000000000000000000000000008152600401611c7a9190612697565b60405180910390fd5b505b5050505050565b606060405180602001604052806000815250905090565b6060611cae82611508565b506000611cb9611c8c565b90506000815111611cd95760405180602001604052806000815250611d04565b80611ce384612060565b604051602001611cf4929190612eec565b6040516020818303038152906040525b915050919050565b60007f01ffc9a7000000000000000000000000000000000000000000000000000000007bffffffffffffffffffffffffffffffffffffffffffffffffffffffff1916827bffffffffffffffffffffffffffffffffffffffffffffffffffffffff1916149050919050565b60006002600083815260200190815260200160002060009054906101000a900473ffffffffffffffffffffffffffffffffffffffff169050919050565b8080611dec5750600073ffffffffffffffffffffffffffffffffffffffff168273ffffffffffffffffffffffffffffffffffffffff1614155b15611f20576000611dfc84611508565b9050600073ffffffffffffffffffffffffffffffffffffffff168373ffffffffffffffffffffffffffffffffffffffff1614158015611e6757508273ffffffffffffffffffffffffffffffffffffffff168173ffffffffffffffffffffffffffffffffffffffff1614155b8015611e7a5750611e788184611306565b155b15611ebc57826040517fa9fbf51f000000000000000000000000000000000000000000000000000000008152600401611eb39190612697565b60405180910390fd5b8115611f1e57838573ffffffffffffffffffffffffffffffffffffffff168273ffffffffffffffffffffffffffffffffffffffff167f8c5be1e5ebec7d5bd14f71427d1e84f3dd0314c0f7b2291e5b200ac8c7c3b92560405160405180910390a45b505b836004600085815260200190815260200160002060006101000a81548173ffffffffffffffffffffffffffffffffffffffff021916908373ffffffffffffffffffffffffffffffffffffffff16021790555050505050565b611f82838361212e565b611f97611f8d6115cd565b6000858585611adb565b505050565b611fa7838383612227565b61205b57600073ffffffffffffffffffffffffffffffffffffffff168373ffffffffffffffffffffffffffffffffffffffff160361201c57806040517f7e273289000000000000000000000000000000000000000000000000000000008152600401612013919061272d565b60405180910390fd5b81816040517f177e802f0000000000000000000000000000000000000000000000000000000081526004016120529291906131a3565b60405180910390fd5b505050565b60606000600161206f846122e8565b01905060008167ffffffffffffffff81111561208e5761208d61293e565b5b6040519080825280601f01601f1916602001820160405280156120c05781602001600182028036833780820191505090505b509050600082602001820190505b600115612123578080600190039150507f3031323334353637383961626364656600000000000000000000000000000000600a86061a8153600a858161211757612116612d3e565b5b049450600085036120ce575b819350505050919050565b600073ffffffffffffffffffffffffffffffffffffffff168273ffffffffffffffffffffffffffffffffffffffff16036121a05760006040517f64a0ae920000000000000000000000000000000000000000000000000000000081526004016121979190612697565b60405180910390fd5b60006121ae83836000611605565b9050600073ffffffffffffffffffffffffffffffffffffffff168173ffffffffffffffffffffffffffffffffffffffff16146122225760006040517f73c6ac6e0000000000000000000000000000000000000000000000000000000081526004016122199190612697565b60405180910390fd5b505050565b60008073ffffffffffffffffffffffffffffffffffffffff168373ffffffffffffffffffffffffffffffffffffffff16141580156122df57508273ffffffffffffffffffffffffffffffffffffffff168473ffffffffffffffffffffffffffffffffffffffff1614806122a0575061229f8484611306565b5b806122de57508273ffffffffffffffffffffffffffffffffffffffff166122c683611590565b73ffffffffffffffffffffffffffffffffffffffff16145b5b90509392505050565b600080600090507a184f03e93ff9f4daa797ed6e38ed64bf6a1f0100000000000000008310612346577a184f03e93ff9f4daa797ed6e38ed64bf6a1f010000000000000000838161233c5761233b612d3e565b5b0492506040810190505b6d04ee2d6d415b85acef81000000008310612383576d04ee2d6d415b85acef8100000000838161237957612378612d3e565b5b0492506020810190505b662386f26fc1000083106123b257662386f26fc1000083816123a8576123a7612d3e565b5b0492506010810190505b6305f5e10083106123db576305f5e10083816123d1576123d0612d3e565b5b0492506008810190505b61271083106124005761271083816123f6576123f5612d3e565b5b0492506004810190505b60648310612423576064838161241957612418612d3e565b5b0492506002810190505b600a8310612432576001810190505b80915050919050565b604051806060016040528060001515815260200160006005811115612463576124626127ed565b5b81526020016000151581525090565b6000604051905090565b600080fd5b600080fd5b60007fffffffff0000000000000000000000000000000000000000000000000000000082169050919050565b6124bb81612486565b81146124c657600080fd5b50565b6000813590506124d8816124b2565b92915050565b6000602082840312156124f4576124f361247c565b5b6000612502848285016124c9565b91505092915050565b60008115159050919050565b6125208161250b565b82525050565b600060208201905061253b6000830184612517565b92915050565b600081519050919050565b600082825260208201905092915050565b60005b8381101561257b578082015181840152602081019050612560565b60008484015250505050565b6000601f19601f8301169050919050565b60006125a382612541565b6125ad818561254c565b93506125bd81856020860161255d565b6125c681612587565b840191505092915050565b600060208201905081810360008301526125eb8184612598565b905092915050565b6000819050919050565b612606816125f3565b811461261157600080fd5b50565b600081359050612623816125fd565b92915050565b60006020828403121561263f5761263e61247c565b5b600061264d84828501612614565b91505092915050565b600073ffffffffffffffffffffffffffffffffffffffff82169050919050565b600061268182612656565b9050919050565b61269181612676565b82525050565b60006020820190506126ac6000830184612688565b92915050565b6126bb81612676565b81146126c657600080fd5b50565b6000813590506126d8816126b2565b92915050565b600080604083850312156126f5576126f461247c565b5b6000612703858286016126c9565b925050602061271485828601612614565b9150509250929050565b612727816125f3565b82525050565b6000602082019050612742600083018461271e565b92915050565b6000806000606084860312156127615761276061247c565b5b600061276f868287016126c9565b9350506020612780868287016126c9565b925050604061279186828701612614565b9150509250925092565b600681106127a857600080fd5b50565b6000813590506127ba8161279b565b92915050565b6000602082840312156127d6576127d561247c565b5b60006127e4848285016127ab565b91505092915050565b7f4e487b7100000000000000000000000000000000000000000000000000000000600052602160045260246000fd5b6006811061282d5761282c6127ed565b5b50565b600081905061283e8261281c565b919050565b600061284e82612830565b9050919050565b61285e81612843565b82525050565b60006060820190506128796000830186612517565b6128866020830185612855565b6128936040830184612517565b949350505050565b6000602082840312156128b1576128b061247c565b5b60006128bf848285016126c9565b91505092915050565b6128d18161250b565b81146128dc57600080fd5b50565b6000813590506128ee816128c8565b92915050565b6000806040838503121561290b5761290a61247c565b5b6000612919858286016126c9565b925050602061292a858286016128df565b9150509250929050565b600080fd5b600080fd5b7f4e487b7100000000000000000000000000000000000000000000000000000000600052604160045260246000fd5b61297682612587565b810181811067ffffffffffffffff821117156129955761299461293e565b5b80604052505050565b60006129a8612472565b90506129b4828261296d565b919050565b600067ffffffffffffffff8211156129d4576129d361293e565b5b6129dd82612587565b9050602081019050919050565b82818337600083830152505050565b6000612a0c612a07846129b9565b61299e565b905082815260208101848484011115612a2857612a27612939565b5b612a338482856129ea565b509392505050565b600082601f830112612a5057612a4f612934565b5b8135612a608482602086016129f9565b91505092915050565b60008060008060808587031215612a8357612a8261247c565b5b6000612a91878288016126c9565b9450506020612aa2878288016126c9565b9350506040612ab387828801612614565b925050606085013567ffffffffffffffff811115612ad457612ad3612481565b5b612ae087828801612a3b565b91505092959194509250565b6000604082019050612b016000830185612517565b612b0e6020830184612855565b9392505050565b60008060408385031215612b2c57612b2b61247c565b5b6000612b3a858286016126c9565b9250506020612b4b858286016126c9565b9150509250929050565b7f4e487b7100000000000000000000000000000000000000000000000000000000600052602260045260246000fd5b60006002820490506001821680612b9c57607f821691505b602082108103612baf57612bae612b55565b5b50919050565b7f496e636f72726563742045544820616d6f756e74000000000000000000000000600082015250565b6000612beb60148361254c565b9150612bf682612bb5565b602082019050919050565b60006020820190508181036000830152612c1a81612bde565b9050919050565b7f4e487b7100000000000000000000000000000000000000000000000000000000600052601160045260246000fd5b6000612c5b826125f3565b91507fffffffffffffffffffffffffffffffffffffffffffffffffffffffffffffffff8203612c8d57612c8c612c21565b5b600182019050919050565b6000819050919050565b612cb3612cae826125f3565b612c98565b82525050565b60008160601b9050919050565b6000612cd182612cb9565b9050919050565b6000612ce382612cc6565b9050919050565b612cfb612cf682612676565b612cd8565b82525050565b6000612d0d8286612ca2565b602082019150612d1d8285612cea565b601482019150612d2d8284612ca2565b602082019150819050949350505050565b7f4e487b7100000000000000000000000000000000000000000000000000000000600052601260045260246000fd5b6000612d78826125f3565b9150612d83836125f3565b925082612d9357612d92612d3e565b5b828206905092915050565b6000612da9826125f3565b9150612db4836125f3565b9250828202612dc2816125f3565b91508282048414831517612dd957612dd8612c21565b5b5092915050565b6000612deb826125f3565b9150612df6836125f3565b925082612e0657612e05612d3e565b5b828204905092915050565b6000612e1c826125f3565b9150612e27836125f3565b9250828201905080821115612e3f57612e3e612c21565b5b92915050565b6000606082019050612e5a6000830186612688565b612e67602083018561271e565b612e746040830184612688565b949350505050565b6000612e87826125f3565b9150612e92836125f3565b9250828203905081811115612eaa57612ea9612c21565b5b92915050565b600081905092915050565b6000612ec682612541565b612ed08185612eb0565b9350612ee081856020860161255d565b80840191505092915050565b6000612ef88285612ebb565b9150612f048284612ebb565b91508190509392505050565b7f4e6f7420746865206f776e657200000000000000000000000000000000000000600082015250565b6000612f46600d8361254c565b9150612f5182612f10565b602082019050919050565b60006020820190508181036000830152612f7581612f39565b9050919050565b7f4e6f7420612077696e6e696e67207469636b6574000000000000000000000000600082015250565b6000612fb260148361254c565b9150612fbd82612f7c565b602082019050919050565b60006020820190508181036000830152612fe181612fa5565b9050919050565b7f416c726561647920636c61696d65640000000000000000000000000000000000600082015250565b600061301e600f8361254c565b915061302982612fe8565b602082019050919050565b6000602082019050818103600083015261304d81613011565b9050919050565b7f496e73756666696369656e7420636f6e74726163742062616c616e6365000000600082015250565b600061308a601d8361254c565b915061309582613054565b602082019050919050565b600060208201905081810360008301526130b98161307d565b9050919050565b600081519050919050565b600082825260208201905092915050565b60006130e7826130c0565b6130f181856130cb565b935061310181856020860161255d565b61310a81612587565b840191505092915050565b600060808201905061312a6000830187612688565b6131376020830186612688565b613144604083018561271e565b818103606083015261315681846130dc565b905095945050505050565b600081519050613170816124b2565b92915050565b60006020828403121561318c5761318b61247c565b5b600061319a84828501613161565b91505092915050565b60006040820190506131b86000830185612688565b6131c5602083018461271e565b939250505056fea2646970667358221220442a3d30b31d2f0bdcad7d35cf08378513abbdaf1ef9edfebaab52d408c35e5264736f6c63430008140033",
  "linkReferences": {},
  "deployedLinkReferences": {}
}